:100000000C9434000C94D9000C9451000C945100C1
:100010000C9451000C9451000C9451000C9451001C
:100020000C9451000C9451000C9451000C94B101AB
:100030000C9451000C9451000C9451000C945100FC
:100040000C9451000C9451000C9451000C945100EC
:100050000C9451000C9451000C9451000C945100DC
:100060000C9451000C94510011241FBECFEFD8E026
:10007000DEBFCDBF11E0A0E0B1E0E6E4F7E102C0F1
:1000800005900D92AE31B107D9F721E0AEE1B1E0B4
:1000900001C01D92AC32B207E1F70E94CE010C9470
:1000A000A10B0C940000ECE7F0E080818064808379
:1000B000EAE7F0E08081876880830895CF93DF933B
:1000C000EC010E9453001982188280E090E8A9E0B8
:1000D000B5E48A839B83AC83BD831E821F8218860E
:1000E00019861A861B861C861D86DF91CF9108957E
:1000F000ECE7F0E08081807F6F70682B6083EAE737
:10010000F0E080818064808380917A0086FDFCCF5E
:1001100080917800909179000895CF93DF93EC015E
:100120000E94780099838883BC0180E090E00E945F
:10013000EE052BE734E14EE450E40E94A5066E8301
:100140007F83888799872A813B814C815D810E94CA
:10015000D50420E030E048E453E40E94D5046A87E7
:100160007B878C879D87DF91CF9108952AB12B7F64
:100170002AB92BB124602BB990931F0180931E01E3
:10018000FC011082118208954A9902C081E008950D
:1001900080E00895FC019BB182E089278BB981E062
:1001A000808381818F5F81838181803108F011821A
:1001B00008951F920F920FB60F9211242F933F9321
:1001C0004F935F936F937F938F939F93AF93BF935F
:1001D000EF93FF9380911E0190911F010E94CA002E
:1001E000FF91EF91BF91AF919F918F917F916F910F
:1001F0005F914F913F912F910F900FBE0F901F90E5
:10020000189584B1826084B985B1826085B90895FA
:1002100080E090E0861797072CF424E02A95F1F708
:100220000196F8CF08950F931F93CF93DF93EC01BE
:100230008B0185B1826085B9CE010E94080185B12C
:100240008D7F85B9B801CE010E940801DF91CF9161
:100250001F910F910895CF92DF92EF92FF920F932B
:100260001F93CF93DF936C018B017A01C0E0D0E044
:10027000C017D10734F4B701C6010E9413012196BB
:10028000F7CFDF91CF911F910F91FF90EF90DF900B
:10029000CF900895662321F088B18B7F88B903C081
:1002A00088B1846088B9442321F088B18D7F88B9F2
:1002B00003C088B1826088B9222321F088B1877F8A
:1002C00088B9089588B1886088B9089527B12460F5
:1002D00027B927B1226027B927B1286027B920E0C4
:1002E00040E060E00E944A0184B5816084BD84B52D
:1002F000826084BD85B5846085BDE0EBF0E08081DF
:1003000081608083808182608083E1EBF0E0808186
:10031000846080830895613061F028F0623079F064
:10032000633099F018C020E040E061E00E944A018B
:10033000089520E041E060E00E944A01089521E034
:1003400040E060E00E944A01089521E040E061E061
:100350000E944A01089520E040E060E00E944A01C6
:1003600008951F920F920FB60F9211248F939F93AF
:10037000F894109285001092840080912001909151
:1003800021010196909321018093200178949F91FF
:100390008F910F900FBE0F901F901895CF93DF9302
:1003A000CDB7DEB7A6970FB6F894DEBF0FBECDBFB0
:1003B000CE0101960E946601CE0102960E94B6000F
:1003C000CE0104960E94A904CE0106960E944B021B
:1003D000CE0148960E945E00CE0186960E940101E1
:1003E00087B1816087B988B18E7F88B9CE010696C2
:1003F0000E94140340E06BE6CE0106960E946A025A
:100400007894CE0102960E94C4008823D1F32FEF86
:1004100039E582E692E02150304080409040D9F7A3
:1004200000C000004CEA5DE064E670E0CE01869614
:100430000E942B018091840090918500892B21F4EA
:10044000CE0106960E9443038091200190912101E4
:100450008938934178F38AB180688AB98BB1806812
:100460008BB960E0CE0148960E948D001092210168
:10047000109220012BB12F772BB923E333E343E50F
:1004800050E40E9441058823ACF660E0CE0101965D
:100490000E948B01CFCFCF93DF93EC010E943004F9
:1004A000CE0101960E94010140E157E260E070E058
:1004B000CE010E9431041A821B821C821D821E8280
:1004C0001F82188619861A861B861E861F86DF9154
:1004D000CF9108950F931F93CF93DF93EC01062FD5
:1004E000142F40E068E60E944C04602FCE010E9469
:1004F0007C04612FCE010E947C04CE010E94740412
:10050000DF91CF911F910F9108951F93CF93DF93A8
:10051000EC01162F40E068E60E944C04612FCE01EA
:100520000E947C04CE010E94740441E068E6CE0182
:100530000E944C04CE010E948E04182FCE010E940E
:100540007404812FDF91CF911F910895AF92BF92D4
:10055000CF92DF92EF92FF920F931F93CF935C01A4
:10056000C62FCC0F1BE31C0F6CE10E94850261E0DB
:1005700070E002C0660F771F8A95E2F7072E000C25
:10058000880B990B0E94F0059B01AC0160E070E0C4
:1005900080E896E40E9446056B017C01612FC5014D
:1005A0000E948502082F10E0102F00276CE36C0FCB
:1005B000C5010E948502B801680F711D072E000C4D
:1005C000880B990B0E94F005A70196010E94460531
:1005D00020E030E04EEF52EC0E94A5066B017C015A
:1005E0000E94B805C62F20E030E04EEF52E4C7016C
:1005F000B6010E94A00618160CF4CFE720E030E008
:100600004EEF52ECC701B6010E94410588230CF45D
:10061000C1E88C2FCF911F910F91FF90EF90DF9049
:10062000CF90BF90AF900895E1E8F0E080818560C1
:10063000808380818083EFE6F0E080818260808328
:1006400084EF91E090938900809388000895FC01E5
:1006500042815381648175814F5F5F4F6F4F7F4F40
:1006600042835383648375830895FC01628173819F
:10067000848195810895FC01128613860895FC01FA
:10068000168617860895FF920F931F93CF93DF93DB
:10069000EC0160E070E00E94A602082F61E070E0CB
:1006A000CE010E94A602182F62E070E0CE010E94E7
:1006B000A602F82E9A85992319F08B85811150C0D6
:1006C00085E5810F8E32C8F4033DBCF00E32ACF4E8
:1006D0002FECF21694F48B85811103C081E08A8798
:1006E0003FC044EC59E064E170E0CE0101960E9405
:1006F0002B01CE010E943B0333C02EE1210F233397
:10070000C0F4033DB4F00E32A4F42FECF2168CF4D6
:1007100091110CC044EC59E064E170E0CE01019607
:100720000E942B01CE010E943B031AC081E08B87FF
:1007300017C08A3638F40E322CF4033D1CF08FECCF
:10074000F81674F044EC59E064E170E0CE010196D3
:100750000E942B01CE010E943F03CE010E943B0369
:100760008A85882309F476C08B85882309F472C0B2
:100770008EE1810F8333E0F4033DD4F00E32C4F4F4
:100780002FECF216ACF48F85811103C081E08E87C7
:1007900061C044EC59E064E170E0CE0101960E9432
:1007A0002B01CE010E943F03CE010E943B0352C0A9
:1007B0001B5A1E32C0F5033DB4F10E32A4F58FEC86
:1007C000F8168CF58E8581110FC044EC59E064E178
:1007D00070E0CE0101960E942B01CE010E943F03E2
:1007E000CE010E943B0336C081E08F87CE010E947C
:1007F0002703CE010E9435039F938F937F936F93BE
:1008000086E091E09F938F930E947F07CE010E9424
:100810003F03CE010E943B030F900F900F900F906B
:100820000F900F9017C01A3638F40E322CF4033D97
:100830001CF02FECF21674F044EC59E064E170E027
:10084000CE0101960E942B01CE010E943F03CE01F2
:100850000E943B03DF91CF911F910F91FF9008956C
:1008600008959A01AB0160E07BE187EB90E00E9484
:100870001207DA01C9014097A109B109B695A795F8
:1008800097958795E8EBF0E0808380818B3010F4BA
:1008900080E0089581E0089584EA8093BC0080910F
:1008A000BC008823E4F78091B900887F883011F07C
:1008B0008031A1F4660F460F4093BB0084E880931B
:1008C000BC008091BC008823E4F78091B900887F48
:1008D000883131F0803431F481E0089580E008956A
:1008E00081E0089580E0089584E98093BC008091C0
:1008F000BC008823E4F308956093BB0084E88093F0
:10090000BC008091BC008823E4F78091B900887F07
:10091000883211F081E0089580E0089584E88093A2
:10092000BC008091BC008823E4F78091BB0008954F
:100930009091C00095FFFCCF8093C60080E090E0CE
:1009400008958091C0008823E4F78091C60090E06C
:100950000895CF93DF93EC018AB182608AB9109237
:10096000C5008CE08093C400E2ECF0E080818660FA
:100970008083E1ECF0E0808188618083E0ECF0E04E
:1009800080818260808361EA74E088E994E00E945B
:10099000340799838883E2E2F1E091838083938333
:1009A0008283DF91CF9108955058BB27AA270E94D8
:1009B000EC040C9466060E94580638F00E945F060C
:1009C00020F039F49F3F19F426F40C9455060EF4E8
:1009D000E095E7FB0C944F06E92F0E94770658F349
:1009E000BA17620773078407950720F079F4A6F514
:1009F0000C9499060EF4E0950B2EBA2FA02D0B0146
:100A0000B90190010C01CA01A0011124FF27591B53
:100A100099F0593F50F4503E68F11A16F040A22F59
:100A2000232F342F4427585FF3CF469537952795CA
:100A3000A795F0405395C9F77EF41F16BA0B620BC9
:100A4000730B840BBAF09150A1F0FF0FBB1F661F10
:100A5000771F881FC2F70EC0BA0F621F731F841F53
:100A600048F4879577956795B795F7959E3F08F079
:100A7000B0CF9395880F08F09927EE0F979587953B
:100A800008950E942B0608F481E008950E945A05FB
:100A90000C9466060E945F0658F00E94580640F0CB
:100AA00029F45F3F29F00C944F0651110C949A06DB
:100AB0000C9455060E94770668F39923B1F35523E9
:100AC00091F3951B550BBB27AA2762177307840761
:100AD00038F09F5F5F4F220F331F441FAA1FA9F3F7
:100AE00035D00E2E3AF0E0E832D091505040E695E5
:100AF000001CCAF72BD0FE2F29D0660F771F881F46
:100B0000BB1F261737074807AB07B0E809F0BB0B38
:100B1000802DBF01FF2793585F4F3AF09E3F51054C
:100B200078F00C944F060C949A065F3FE4F3983EDD
:100B3000D4F3869577956795B795F7959F5FC9F735
:100B4000880F911D9695879597F90895E1E0660FB6
:100B5000771F881FBB1F621773078407BA0720F02F
:100B6000621B730B840BBA0BEE1F88F7E095089598
:100B70000E94BF056894B1110C949A0608950E94D2
:100B80007F0688F09F5798F0B92F9927B751B0F09A
:100B9000E1F0660F771F881F991F1AF0BA95C9F701
:100BA00014C0B13091F00E949906B1E008950C9400
:100BB0009906672F782F8827B85F39F0B93FCCF3B3
:100BC000869577956795B395D9F73EF4909580957E
:100BD000709561957F4F8F4F9F4F0895E89409C09E
:100BE00097FB3EF490958095709561957F4F8F4F60
:100BF0009F4F9923A9F0F92F96E9BB279395F69576
:100C0000879577956795B795F111F8CFFAF4BB0FF3
:100C100011F460FF1BC06F5F7F4F8F4F9F4F16C057
:100C2000882311F096E911C0772321F09EE8872FE1
:100C3000762F05C0662371F096E8862F70E060E09D
:100C40002AF09A95660F771F881FDAF7880F969516
:100C5000879597F90895990F0008550FAA0BE0E8BA
:100C6000FEEF16161706E807F907C0F0121613066E
:100C7000E407F50798F0621B730B840B950B39F4AE
:100C80000A2661F0232B242B252B21F408950A2614
:100C900009F4A140A6958FEF811D811D089597F954
:100CA0009F6780E870E060E008959FEF80EC089512
:100CB00000240A941616170618060906089500243B
:100CC0000A9412161306140605060895092E0394B5
:100CD000000C11F4882352F0BB0F40F4BF2B11F429
:100CE00060FF04C06F5F7F4F8F4F9F4F089557FD88
:100CF0009058440F551F59F05F3F71F04795880F8A
:100D000097FB991F61F09F3F79F087950895121620
:100D100013061406551FF2CF4695F1DF08C01616CC
:100D200017061806991FF1CF86957105610508947D
:100D30000895E894BB2766277727CB0197F9089594
:100D40000E942B0608F48FEF08950E94B8060C94B9
:100D500066060E94580638F00E945F0620F0952330
:100D600011F00C944F060C94550611240C949A061D
:100D70000E94770670F3959FC1F3950F50E0551FC1
:100D8000629FF001729FBB27F00DB11D639FAA27E0
:100D9000F00DB11DAA1F649F6627B00DA11D661F2F
:100DA000829F2227B00DA11D621F739FB00DA11D50
:100DB000621F839FA00D611D221F749F3327A00D0A
:100DC000611D231F849F600D211D822F762F6A2FA6
:100DD00011249F5750409AF0F1F088234AF0EE0F0B
:100DE000FF1FBB1F661F771F881F91505040A9F738
:100DF0009E3F510580F00C944F060C949A065F3F7D
:100E0000E4F3983ED4F3869577956795B795F79573
:100E1000E7959F5FC1F7FE2B880F911D96958795EB
:100E200097F90895A1E21A2EAA1BBB1BFD010DC064
:100E3000AA1FBB1FEE1FFF1FA217B307E407F5078A
:100E400020F0A21BB30BE40BF50B661F771F881F66
:100E5000991F1A9469F760957095809590959B01FC
:100E6000AC01BD01CF0108950F931F93CF93DF9382
:100E7000009731F46115710519F480E090E03AC0F3
:100E80008B01EC016EE070E081E090E00E94760959
:100E9000FC01892B91F380E883830115110571F022
:100EA0001387028781E88383809122019091230137
:100EB000892B21F4F0932301E09322012097C9F0BC
:100EC000D187C08783818260838380912401909140
:100ED0002501892B71F4F0932501E0932401809181
:100EE000260190912701892B21F4F0932701E093AB
:100EF0002601CF01DF91CF911F910F910895A0E0BE
:100F0000B0E0E5E8F7E00C947A0BAE014B5F5F4F81
:100F1000FA0161917191AF018091240190912501B5
:100F20000E949507E2E00C94960BABE0B0E0EBE991
:100F3000F7E00C946A0B6C017B018A01FC011782BB
:100F40001682838181FFCCC1CE0101963C01F6015E
:100F50009381F70193FD859193FF81917F01882310
:100F600009F4BAC1853239F493FD859193FF8191DB
:100F70007F01853229F4B60190E00E94D00AE7CFC4
:100F8000912C212C312CFFE1F315D8F08B3279F024
:100F900038F4803279F08332A1F4232D20611DC012
:100FA0008D3261F0803369F4232D216016C0832DCA
:100FB0008260382EE32DE4603E2E2AC0F32DF860C7
:100FC0001DC037FC2DC020ED280F2A3040F08E3296
:100FD000B9F436FC81C1232D2064322E19C036FEAF
:100FE00006C08AE0989E200D1124922E11C0EAE0DE
:100FF0002E9E200D1124222EF32DF0623F2E08C0CC
:101000008C3621F4832D8068382E02C0883641F456
:10101000F70193FD859193FF81917F018111B3CFFA
:10102000982F9F7D9554933028F40C5F1F4F9FE3BA
:1010300099830DC0833631F0833771F0833509F021
:1010400059C021C0F801808189830E5F1F4F882419
:101050008394912C530113C02801F2E04F0E511CD0
:10106000F801A080B18036FE03C0692D70E002C097
:101070006FEF7FEFC5010E94C50A4C018201F32D7D
:10108000FF773F2E16C0280122E0420E511CF801C6
:10109000A080B18036FE03C0692D70E002C06FEF02
:1010A0007FEFC5010E94B30A4C01F32DF0683F2E7B
:1010B000820133FC1BC0822D90E088169906B0F4A3
:1010C000B60180E290E00E94D00A2A94F4CFF501A4
:1010D00037FC859137FE81915F01B60190E00E9457
:1010E000D00A21102A9421E0821A910881149104D7
:1010F00071F7E8C0843611F0893641F5F80137FE02
:1011000007C060817181828193810C5F1F4F08C08D
:1011100060817181072E000C880B990B0E5F1F4FA9
:10112000F32DFF763F2E97FF09C09095809570951F
:1011300061957F4F8F4F9F4FF0683F2E2AE030E040
:10114000A3010E940C0B882E861845C0853731F408
:10115000232D2F7EB22E2AE030E025C0932D997FDB
:10116000B92E8F36C1F018F4883579F0B5C08037C4
:1011700019F0883721F0B0C0E92FE061BE2EB4FE2F
:101180000DC0FB2DF460BF2E09C034FE0AC0292F0C
:101190002660B22E06C028E030E005C020E130E035
:1011A00002C020E132E0F801B7FE07C06081718122
:1011B000828193810C5F1F4F06C06081718180E046
:1011C00090E00E5F1F4FA3010E940C0B882E861823
:1011D000FB2DFF773F2E36FE0DC0232D2E7FA22E36
:1011E000891458F434FE0BC032FC09C0832D8E7E66
:1011F000A82E05C0B82CA32C03C0B82C01C0B92C54
:10120000A4FE0FC0FE01E80DF11D8081803321F4A2
:101210009A2D997EA92E09C0A2FE06C0B394B3945C
:1012200004C08A2D867809F0B394A3FC11C0A0FEF7
:1012300006C0B21488F4280C922C9B180EC0B2146D
:1012400060F4B60180E290E00E94D00AB394F7CF38
:10125000B21418F42B1802C0982C212CA4FE10C034
:10126000B60180E390E00E94D00AA2FE17C0A1FC64
:1012700003C088E790E002C088E590E0B6010CC0AA
:101280008A2D867859F0A1FE02C08BE201C080E26F
:10129000A7FC8DE2B60190E00E94D00A891438F4D0
:1012A000B60180E390E00E94D00A9A94F7CF8A9426
:1012B000F301E80DF11D8081B60190E00E94D00A93
:1012C0008110F5CF222009F442CEB60180E290E0F1
:1012D0000E94D00A2A94F6CFF6018681978102C037
:1012E0008FEF9FEF2B96E2E10C94860B0F931F93E9
:1012F000CF93DF93869F8001879F100D969F100DDF
:101300001124C8010E949209EC01009729F0A8015C
:1013100060E070E00E94BE0ACE01DF91CF911F9184
:101320000F9108950F931F93CF93DF938230910510
:1013300010F482E090E0E0912A01F0912B0120E08E
:1013400030E0A0E0B0E0309719F140815181028196
:10135000138148175907C8F08417950769F4109747
:1013600031F012960C93129713961C9327C000939A
:101370002A0110932B0122C02115310519F04217C3
:10138000530718F49A01BD01EF01DF01F801DBCF2B
:1013900021153105F9F0281B390B2430310580F473
:1013A0008A819B816115710521F0FB019383828302
:1013B00004C090932B0180932A01FE01329644C011
:1013C000FE01E20FF31F819391932250310939837B
:1013D00028833AC02091280130912901232B41F420
:1013E00020910201309103013093290120932801BB
:1013F00020910001309101012115310541F42DB7F3
:101400003EB74091040150910501241B350BE0913A
:101410002801F0912901E217F307A0F42E1B3F0BDE
:101420002817390778F0AC014E5F5F4F2417350756
:1014300048F04E0F5F1F509329014093280181937C
:10144000919302C0E0E0F0E0CF01DF91CF911F91D6
:101450000F910895CF93DF93009709F481C0FC01A9
:10146000329713821282A0912A01B0912B0110971A
:1014700081F420813181820F931F209128013091C6
:1014800029012817390751F5F0932901E093280124
:1014900067C0ED0120E030E0CE17DF0740F44A815D
:1014A0005B819E0141155105F1F0EA01F5CFD3832F
:1014B000C28340815181840F951FC817D90759F401
:1014C00088819981840F951F0296918380838A81F8
:1014D0009B81938382832115310529F4F0932B019D
:1014E000E0932A013DC0E901FB83EA8349915991C8
:1014F000C40FD51FEC17FD0761F480819181840F23
:10150000951F0296E90199838883828193819B8349
:101510008A83E0E0F0E012968D919C9113970097FA
:1015200019F0FD01DC01F7CF8D919C9111979D0180
:101530002E5F3F4F820F931F209128013091290188
:101540002817390769F4309729F410922B0110926B
:101550002A0102C013821282B0932901A0932801AC
:10156000DF91CF910895FC0105906150704001100A
:10157000D8F7809590958E0F9F1F0895DC0101C0CC
:101580006D9341505040E0F70895FC016150704068
:1015900001900110D8F7809590958E0F9F1F0895A8
:1015A0000F931F93CF93DF93FB01238121FD03C092
:1015B0008FEF9FEF2CC022FF16C0468157812481F8
:1015C00035814217530744F4A081B1819D012F5FFB
:1015D0003F4F318320838C93268137812F5F3F4F8C
:1015E0003783268314C08B01EC01FB010084F18555
:1015F000E02D0995892BE1F6D80116968D919C91E5
:101600001797019617969C938E931697CE01DF91AC
:10161000CF911F910F910895FA01AA27283051F117
:10162000203181F1E8946F936E7F6E5F7F4F8F4F13
:101630009F4FAF4FB1E03ED0B4E03CD0670F781F72
:10164000891F9A1FA11D680F791F8A1F911DA11D57
:101650006A0F711D811D911DA11D20D009F4689490
:101660003F912AE0269F11243019305D3193DEF638
:10167000CF010895462F4770405D4193B3E00FD0EE
:10168000C9F7F6CF462F4F70405D4A3318F0495DD9
:1016900031FD4052419302D0A9F7EACFB4E0A695BC
:1016A0009795879577956795BA95C9F700976105DE
:1016B000710508959B01AC010A2E06945795479534
:1016C00037952795BA95C9F7620F731F841F951F29
:1016D000A01D08952F923F924F925F926F927F923A
:1016E0008F929F92AF92BF92CF92DF92EF92FF9232
:1016F0000F931F93CF93DF93CDB7DEB7CA1BDB0BDE
:101700000FB6F894DEBF0FBECDBF09942A88398882
:1017100048885F846E847D848C849B84AA84B98489
:10172000C884DF80EE80FD800C811B81AA81B98195
:10173000CE0FD11D0FB6F894DEBF0FBECDBFED01A9
:061740000895F894FFCFAC
:1017460000002C012000506F636574206F70616B80
:0E1756006F76616E693A20256C75210D0A00D0
:00000001FF
